{
  "contractName": "TimeLockTokenEscrow",
  "abi": [
    {
      "inputs": [
        {
          "internalType": "contract IERC20",
          "name": "_token",
          "type": "address"
        }
      ],
      "stateMutability": "nonpayable",
      "type": "constructor"
    },
    {
      "anonymous": false,
      "inputs": [
        {
          "indexed": true,
          "internalType": "uint256",
          "name": "_depositId",
          "type": "uint256"
        },
        {
          "indexed": true,
          "internalType": "address",
          "name": "_creator",
          "type": "address"
        },
        {
          "indexed": true,
          "internalType": "address",
          "name": "_beneficiary",
          "type": "address"
        },
        {
          "indexed": false,
          "internalType": "uint256",
          "name": "_amount",
          "type": "uint256"
        },
        {
          "indexed": false,
          "internalType": "uint256",
          "name": "_lockedUntil",
          "type": "uint256"
        }
      ],
      "name": "Lockup",
      "type": "event"
    },
    {
      "anonymous": false,
      "inputs": [
        {
          "indexed": true,
          "internalType": "uint256",
          "name": "_depositId",
          "type": "uint256"
        },
        {
          "indexed": true,
          "internalType": "address",
          "name": "_beneficiary",
          "type": "address"
        },
        {
          "indexed": true,
          "internalType": "address",
          "name": "_caller",
          "type": "address"
        },
        {
          "indexed": false,
          "internalType": "uint256",
          "name": "_amount",
          "type": "uint256"
        }
      ],
      "name": "Withdrawal",
      "type": "event"
    },
    {
      "inputs": [
        {
          "internalType": "uint256",
          "name": "",
          "type": "uint256"
        },
        {
          "internalType": "address",
          "name": "",
          "type": "address"
        }
      ],
      "name": "beneficiaryToTimeLock",
      "outputs": [
        {
          "internalType": "address",
          "name": "creator",
          "type": "address"
        },
        {
          "internalType": "uint256",
          "name": "amount",
          "type": "uint256"
        },
        {
          "internalType": "uint256",
          "name": "lockedUntil",
          "type": "uint256"
        }
      ],
      "stateMutability": "view",
      "type": "function"
    },
    {
      "inputs": [],
      "name": "depositIdPointer",
      "outputs": [
        {
          "internalType": "uint256",
          "name": "",
          "type": "uint256"
        }
      ],
      "stateMutability": "view",
      "type": "function"
    },
    {
      "inputs": [],
      "name": "token",
      "outputs": [
        {
          "internalType": "contract IERC20",
          "name": "",
          "type": "address"
        }
      ],
      "stateMutability": "view",
      "type": "function"
    },
    {
      "inputs": [
        {
          "internalType": "address",
          "name": "_beneficiary",
          "type": "address"
        },
        {
          "internalType": "uint256",
          "name": "_amount",
          "type": "uint256"
        },
        {
          "internalType": "uint256",
          "name": "_lockedUntil",
          "type": "uint256"
        }
      ],
      "name": "lock",
      "outputs": [],
      "stateMutability": "nonpayable",
      "type": "function"
    },
    {
      "inputs": [
        {
          "internalType": "uint256",
          "name": "_depositId",
          "type": "uint256"
        },
        {
          "internalType": "address",
          "name": "_beneficiary",
          "type": "address"
        }
      ],
      "name": "withdrawal",
      "outputs": [],
      "stateMutability": "nonpayable",
      "type": "function"
    },
    {
      "inputs": [
        {
          "internalType": "address",
          "name": "_beneficiary",
          "type": "address"
        }
      ],
      "name": "getDepositIdsForBeneficiary",
      "outputs": [
        {
          "internalType": "uint256[]",
          "name": "depositIds",
          "type": "uint256[]"
        }
      ],
      "stateMutability": "view",
      "type": "function"
    },
    {
      "inputs": [
        {
          "internalType": "uint256",
          "name": "_depositId",
          "type": "uint256"
        },
        {
          "internalType": "address",
          "name": "_beneficiary",
          "type": "address"
        }
      ],
      "name": "getLockForDepositIdAndBeneficiary",
      "outputs": [
        {
          "internalType": "address",
          "name": "_creator",
          "type": "address"
        },
        {
          "internalType": "uint256",
          "name": "_amount",
          "type": "uint256"
        },
        {
          "internalType": "uint256",
          "name": "_lockedUntil",
          "type": "uint256"
        }
      ],
      "stateMutability": "view",
      "type": "function"
    }
  ],
  "bytecode": "0x6080604052600060035534801561001557600080fd5b50604051610ab4380380610ab48339818101604052602081101561003857600080fd5b5051600080546001600160a01b0390921661010002610100600160a81b031960ff1990931660011792909216919091179055610a3b806100796000396000f3fe608060405234801561001057600080fd5b506004361061007d5760003560e01c80631ac53ee11161005b5780631ac53ee11461017a578063bfd5df2014610194578063e2ab691d146101c0578063fc0c546a146101f25761007d565b806301c27979146100825780630bdb82d5146100f8578063190d7c551461014c575b600080fd5b6100a86004803603602081101561009857600080fd5b50356001600160a01b0316610216565b60408051602080825283518183015283519192839290830191858101910280838360005b838110156100e45781810151838201526020016100cc565b505050509050019250505060405180910390f35b6101246004803603604081101561010e57600080fd5b50803590602001356001600160a01b0316610282565b604080516001600160a01b039094168452602084019290925282820152519081900360600190f35b6101786004803603604081101561016257600080fd5b50803590602001356001600160a01b03166102b6565b005b610182610511565b60408051918252519081900360200190f35b610124600480360360408110156101aa57600080fd5b50803590602001356001600160a01b0316610517565b610178600480360360608110156101d657600080fd5b506001600160a01b038135169060208101359060400135610551565b6101fa6108e1565b604080516001600160a01b039092168252519081900360200190f35b6001600160a01b03811660009081526002602090815260409182902080548351818402810184019094528084526060939283018282801561027657602002820191906000526020600020905b815481526020019060010190808311610262575b50505050509050919050565b600160208181526000938452604080852090915291835291208054918101546002909101546001600160a01b039092169183565b60005460ff1661030d576040805162461bcd60e51b815260206004820152601f60248201527f5265656e7472616e637947756172643a207265656e7472616e742063616c6c00604482015290519081900360640190fd5b6000805460ff191681558281526001602081815260408084206001600160a01b0386168552909152909120908101546103775760405162461bcd60e51b815260040180806020018281038252602e81526020018061099d602e913960400191505060405180910390fd5b80600201544210156103d0576040805162461bcd60e51b815260206004820152601a60248201527f546f6b656e7320617265207374696c6c206c6f636b6564207570000000000000604482015290519081900360640190fd5b600181018054600090915560408051828152905133916001600160a01b0386169187917fcf91346356075a3baa53cd15dff800c671dccf78e18140c685232e8ab7566592919081900360200190a460008054604080517fa9059cbb0000000000000000000000000000000000000000000000000000000081526001600160a01b0387811660048301526024820186905291516101009093049091169163a9059cbb9160448082019260209290919082900301818787803b15801561049357600080fd5b505af11580156104a7573d6000803e3d6000fd5b505050506040513d60208110156104bd57600080fd5b50519050806104fd5760405162461bcd60e51b81526004018080602001828103825260288152602001806109476028913960400191505060405180910390fd5b50506000805460ff19166001179055505050565b60035481565b60009182526001602081815260408085206001600160a01b0394851686529091529092208054928101546002909101549290911692909190565b60005460ff166105a8576040805162461bcd60e51b815260206004820152601f60248201527f5265656e7472616e637947756172643a207265656e7472616e742063616c6c00604482015290519081900360640190fd5b6000805460ff191690556001600160a01b0383166105f75760405162461bcd60e51b815260040180806020018281038252602e81526020018061096f602e913960400191505060405180910390fd5b600082116106365760405162461bcd60e51b81526004018080602001828103825260288152602001806108f66028913960400191505060405180910390fd5b600054604080517fdd62ed3e0000000000000000000000000000000000000000000000000000000081523360048201523060248201529051849261010090046001600160a01b03169163dd62ed3e916044808301926020929190829003018186803b1580156106a457600080fd5b505afa1580156106b8573d6000803e3d6000fd5b505050506040513d60208110156106ce57600080fd5b5051101561070d5760405162461bcd60e51b815260040180806020018281038252603b8152602001806109cb603b913960400191505060405180910390fd5b6003805460019081018083556001600160a01b0386811660008181526002602081815260408084208054808a01825590855282852001969096558551606081018752338082528183018c81528289018c81528b5487528a8552898720888852855295899020925183547fffffffffffffffffffffffff00000000000000000000000000000000000000001698169790971782559551978101979097559151950194909455935482518781529384018690528251919390927fd5cc234c02e8ad2404b9d1de2a7fa889e4d1f8de8f398414ae98b3569a82070b92918290030190a460008054604080517f23b872dd0000000000000000000000000000000000000000000000000000000081523360048201523060248201526044810186905290516101009092046001600160a01b0316916323b872dd9160648082019260209290919082900301818787803b15801561086457600080fd5b505af1158015610878573d6000803e3d6000fd5b505050506040513d602081101561088e57600080fd5b50519050806108ce5760405162461bcd60e51b815260040180806020018281038252602981526020018061091e6029913960400191505060405180910390fd5b50506000805460ff191660011790555050565b60005461010090046001600160a01b03168156fe4c6f636b20757020616d6f756e74206f66207a65726f20746f6b656e7320697320696e76616c69644661696c656420746f20657363726f7720746f6b656e7320696e746f2074686520636f6e74726163744661696c656420746f2073656e6420746f6b656e7320746f207468652062656e6566696369617279596f752063616e6e6f74206c6f636b20757020746f6b656e7320666f7220746865207a65726f2061646472657373546865726520617265206e6f20746f6b656e73206c6f636b656420757020666f722074686973206164647265737354686520636f6e747261637420646f6573206e6f74206861766520656e6f756768206f6620616e20616c6c6f77616e636520746f20657363726f77a2646970667358221220c0a1689fbb612724c80debfa929614d7229bff704472cab682dd5636a66dc34f64736f6c63430006060033",
  "immutableReferences": {},
  "source": "pragma solidity ^0.6.6;\n\nimport \"@openzeppelin/contracts/token/ERC20/IERC20.sol\";\nimport \"@openzeppelin/contracts/utils/ReentrancyGuard.sol\";\n\ncontract TimeLockTokenEscrow is ReentrancyGuard {\n\n    event Lockup(\n        uint256 indexed _depositId,\n        address indexed _creator,\n        address indexed _beneficiary,\n        uint256 _amount,\n        uint256 _lockedUntil\n    );\n\n    event Withdrawal(\n        uint256 indexed _depositId,\n        address indexed _beneficiary,\n        address indexed _caller,\n        uint256 _amount\n    );\n\n    struct TimeLock {\n        address creator;\n        uint256 amount;\n        uint256 lockedUntil;\n    }\n\n    IERC20 public token;\n\n    // Deposit ID -> beneficiary -> TimeLock data mappings\n    mapping(uint256 => mapping(address => TimeLock)) public beneficiaryToTimeLock;\n\n    // Reverse lookup for beneficiary to deposits\n    mapping(address => uint256[]) beneficiaryToDepositIds;\n\n    // An incrementing ID counter for each new deposit\n    uint256 public depositIdPointer = 0;\n\n    constructor(IERC20 _token) public {\n        token = _token;\n    }\n\n    /**\n     * @dev Locks the the given amount of tokens to the beneficiary for the given amount of time\n     * @param _beneficiary address the beneficiary\n     * @param _amount uint256 the amount to lockup\n     * @param _lockedUntil uint256 the time when the timelock expires\n    */\n    function lock(address _beneficiary, uint256 _amount, uint256 _lockedUntil) external nonReentrant {\n        require(_beneficiary != address(0), \"You cannot lock up tokens for the zero address\");\n        require(_amount > 0, \"Lock up amount of zero tokens is invalid\");\n        require(token.allowance(msg.sender, address(this)) >= _amount, \"The contract does not have enough of an allowance to escrow\");\n\n        // generate next deposit ID to use for the address\n        depositIdPointer = depositIdPointer + 1;\n\n        // Add reverse mapping for query help\n        beneficiaryToDepositIds[_beneficiary].push(depositIdPointer);\n\n        beneficiaryToTimeLock[depositIdPointer][_beneficiary] = TimeLock({\n            creator : msg.sender,\n            amount : _amount,\n            lockedUntil : _lockedUntil\n            });\n\n        emit Lockup(depositIdPointer, msg.sender, _beneficiary, _amount, _lockedUntil);\n\n        bool transferSuccess = token.transferFrom(msg.sender, address(this), _amount);\n        require(transferSuccess, \"Failed to escrow tokens into the contract\");\n    }\n\n    /**\n     * @dev Withdraw the locked up amount for the given deposit and beneficiary\n     * @param _depositId uint256 the deposit ID\n     * @param _beneficiary address the beneficiary\n     */\n    function withdrawal(uint256 _depositId, address _beneficiary) external nonReentrant {\n        TimeLock storage lockup = beneficiaryToTimeLock[_depositId][_beneficiary];\n        require(lockup.amount > 0, \"There are no tokens locked up for this address\");\n        require(now >= lockup.lockedUntil, \"Tokens are still locked up\");\n\n        uint256 transferAmount = lockup.amount;\n        lockup.amount = 0;\n\n        emit Withdrawal(_depositId, _beneficiary, msg.sender, transferAmount);\n\n        bool transferSuccess = token.transfer(_beneficiary, transferAmount);\n        require(transferSuccess, \"Failed to send tokens to the beneficiary\");\n    }\n\n    /**\n     * @dev Used to enumerate a beneficiaries deposits\n     * @param _beneficiary address the beneficiary to find any deposit IDs for\n     * @return depositIds uint256[] of deposit IDs for the given beneficiary\n    */\n    function getDepositIdsForBeneficiary(address _beneficiary) external view returns (uint256[] memory depositIds) {\n        return beneficiaryToDepositIds[_beneficiary];\n    }\n\n    /**\n     * @dev Used to get the time lock config for the deposit ID and beneficiary\n     * @param _depositId uint256 the deposit to look up\n     * @param _beneficiary address the beneficiary which matches the deposit ID\n     * @return _creator address the creator of the time lock\n     * @return _amount uint256 the amount of tokens locked\n     * @return _lockedUntil uint256 for when the timelock expires\n    */\n    function getLockForDepositIdAndBeneficiary(uint256 _depositId, address _beneficiary)\n    external view returns (address _creator, uint256 _amount, uint256 _lockedUntil) {\n        TimeLock storage lockup = beneficiaryToTimeLock[_depositId][_beneficiary];\n        return (\n        lockup.creator,\n        lockup.amount,\n        lockup.lockedUntil\n        );\n    }\n\n}\n",
  "sourcePath": "/Users/Natalie/Projects/TimeLockTokenEscrowV2/smart-contracts/contracts/TimeLockTokenEscrow.sol",
  "compiler": {
    "name": "solc",
    "version": "0.6.6+commit.6c089d02.Emscripten.clang"
  },
  "schemaVersion": "3.1.0",
  "updatedAt": "2020-05-28T09:49:43.893Z",
  "devdoc": {
    "methods": {
      "getDepositIdsForBeneficiary(address)": {
        "details": "Used to enumerate a beneficiaries deposits",
        "params": {
          "_beneficiary": "address the beneficiary to find any deposit IDs for"
        },
        "returns": {
          "depositIds": "uint256[] of deposit IDs for the given beneficiary"
        }
      },
      "getLockForDepositIdAndBeneficiary(uint256,address)": {
        "details": "Used to get the time lock config for the deposit ID and beneficiary",
        "params": {
          "_beneficiary": "address the beneficiary which matches the deposit ID",
          "_depositId": "uint256 the deposit to look up"
        },
        "returns": {
          "_amount": "uint256 the amount of tokens locked",
          "_creator": "address the creator of the time lock",
          "_lockedUntil": "uint256 for when the timelock expires"
        }
      },
      "lock(address,uint256,uint256)": {
        "details": "Locks the the given amount of tokens to the beneficiary for the given amount of time",
        "params": {
          "_amount": "uint256 the amount to lockup",
          "_beneficiary": "address the beneficiary",
          "_lockedUntil": "uint256 the time when the timelock expires"
        }
      },
      "withdrawal(uint256,address)": {
        "details": "Withdraw the locked up amount for the given deposit and beneficiary",
        "params": {
          "_beneficiary": "address the beneficiary",
          "_depositId": "uint256 the deposit ID"
        }
      }
    }
  },
  "userdoc": {
    "methods": {}
  }
}